:020000040000FA
:1000000090020010690100007101000073010000FE
:100010007501000077010000790100000000000078
:100020000000000000000000000000007B01000054
:100030007D010000000000007F0100008101000040
:1000400083010000830100008301000083010000A0
:100050008301000083010000830100008301000090
:100060008301000083010000830100008301000080
:100070008301000083010000830100008301000070
:100080008301000083010000830100008301000060
:100090008301000083010000830100008301000050
:1000A0008301000083010000830100008301000040
:1000B0008301000083010000830100008301000030
:1000C00083010000830100008301000000F002F8BA
:1000D00000F03AF80AA090E8000C82448344AAF1A8
:1000E0000107DA4501D100F02FF8AFF2090EBAE8A6
:1000F0000F0013F0010F18BFFB1A43F0010318475C
:1001000094060000B4060000103A24BF78C878C1F5
:10011000FAD8520724BF30C830C144BF04680C600D
:10012000704700000023002400250026103A28BF55
:1001300078C1FBD8520728BF30C148BF0B60704759
:100140001FB51FBD10B510BD00F0A6F81146FFF792
:10015000F7FF00F0F5F900F0C4F803B4FFF7F2FF81
:1001600003BC00F011FB0000094880470948004724
:10017000FEE7FEE7FEE7FEE7FEE7FEE7FEE7FEE757
:10018000FEE7FEE704480549034A054B70470000B7
:10019000A9040000CD0000009000001090020010A3
:1001A0009000001053EA020C00F069802DE9F04B3A
:1001B0004FF00006002B1FBFB3FA83F503FA05F4D6
:1001C00024FA05F65E4012BF1643B2FA82F502FA2F
:1001D00005F4C5F120051EBF22FA05FC44EA0C0413
:1001E000203556EA044C4FEA144418BF641C4FF003
:1001F00000084FF00009904271EB030C39D300293D
:1002000019BFB1FA81F701FA07F6B0FA80F700FAE0
:1002100007F6C7F120071EBF20FA07FC46EA0C06C6
:100220002037B6FBF4FCA7EB0507103F07F01F0BC8
:10023000CBF120060CFA0BFB2CFA06F644BFB346B2
:100240000026202FA4BF5E464FF0000B5BEA060C91
:1002500008BF4FF0010B19EB0B09ABFB027C48EB1D
:100260000608C01B06FB02CC0BFB03CC71EB0C0198
:10027000C1E70B46024641464846BDE8F08B13B540
:100280004FF000004FF00001AFF30080BDE81C40CC
:100290007047704770477047754600F029F8AE46C2
:1002A00005006946534620F00700854618B020B582
:1002B000FFF768FFBDE820404FF000064FF0000751
:1002C0004FF000084FF0000B21F00701AC46ACE8FE
:1002D000C009ACE8C009ACE8C009ACE8C0098D466B
:1002E00070470446AFF300802046FFF736FF00005A
:1002F000004870472C00001070470000FFFFFFFF10
:100300002DE9F04781480068C0F3016003287CD1E3
:100310007F48006810F0030006D0012833D002287F
:100320005FD003282ED100E000BF78480068C0F3FA
:10033000074000F101044FF002017648D0F8880030
:10034000C0F30E0000F10100A1FB0001724B4FF061
:10035000000CA0FB037901FB039100FB0C1122466A
:1003600063463846FFF71EFF05466C480068C0B27A
:1003700000F1010422464FF000032846FFF712FF68
:10038000674908605DE061480068C0F3074000F11C
:1003900001044FF002015F48D0F88800C0F30E005E
:1003A00000F10100A1FB00105E4A4FF0000CA1FB20
:1003B000027900FB029001FB0C012246634638469D
:1003C000FFF7F0FE054655480068C0B200F1010491
:1003D00022464FF000032846FFF7E4FE504908602C
:1003E0002FE04A480068C0F3074000F101044FF0D5
:1003F00002014848D0F88800C0F30E0000F1010067
:10040000A1FB00124FF4004000E01BE04FF000039E
:10041000A1FB007902FB009001FB03012246384654
:10042000FFF7C0FE05463D480068C0B200F1010478
:1004300022464FF000032846FFF7B4FE3849086013
:1004400000BF2FE03248006810F0030006D00128FA
:1004500010D0022819D0032823D100E000BF2F4874
:100460000068C0B200F101002B49B1FBF0F02C494B
:10047000086016E029480068C0B200F1010029496F
:10048000B1FBF0F0264908600BE024480068C0B2D8
:1004900000F101004FF40041B1FBF0F02049086089
:1004A00000BF00BFBDE8F08720201F490860194841
:1004B000D0F8A00110F0200F05D000BF1A48006846
:1004C00010F0400FFAD00320144908601748114972
:1004D000C1F8A8011648174908604FF001000C49FF
:1004E00008604FF00400A1F10401086012481349AC
:1004F000086040F201100749C1F8C80108460068C9
:1005000020F4704040F480400860704788C00F407D
:100510000CC10F4000C00F4000093D0004C10F4056
:1005200000000010001BB700A0C10F4055515155ED
:1005300055545554ACC10F40DEF7EFEFC4C00F4027
:10054000FFF7B2FFFFF7DCFE8948006920F00300E7
:10055000874908618748006C20F0010085490864DC
:100560000846006840F47F6008600846006A40F072
:10057000F0600862FAE07F48406D10F0010F79D01A
:1005800000BF00207C49C86000BF0F207A49886006
:100590005FE00F207849486052E00F2076490860FC
:1005A00045E07448406D002000B164E000207349CC
:1005B000086020E071480088C0056E4948636E48B5
:1005C0006E49096850F821006D49085C00016949CD
:1005D000486100206B49086004E06A480068401CDC
:1005E00068490860674800686428F6D36348006873
:1005F000401C62490860614800680428DAD3002082
:100600006049086004E05F480068401C5D4908607C
:100610005C4800686428F6D35648C06940F47F609F
:100620005449C86154480068401E53490860524804
:1006300000680028B5DA50484068401E4E494860BE
:100640004D4840680028A8DA4B488068401E4A4957
:1006500088604948806800289BDA4748C06810B91C
:1006600010204549C8604448C068401E4249C860DF
:100670008BE7FFE700BF00203F49C86000BF0F20A5
:100680003D49886062E00F203B49486055E00F20FB
:100690003949086048E03748406D10F0010F00D03C
:1006A0006FE700203549086022E034480088C00523
:1006B0003049486330483149096850F82100C0F199
:1006C0000F002F49085C00012A49486100202D498C
:1006D000086004E02B480068401C2A49086029484B
:1006E00000686428F6D325480068401C2349086048
:1006F000224800680428D8D300202249086004E07A
:1007000020480068401C1F4908601E480068642893
:10071000F6D31848C06940F47F601649C86116488E
:100720000068401E14490860134800680028B2DAC7
:1007300011484068401E104948600F484068002832
:10074000A5DA0D488068401E0B4988600A48806819
:10075000002898DA0848C06810B910200649C86017
:100760000548C068401E0449C86088E703E70000E8
:1007700000C0024000C00920140000102400001036
:10078000040000102800001001491820ABBEFEE74D
:1007900026000200B4070000000000102C0000003A
:1007A00008010000E00700002C00001064020000B7
:1007B00024010000C0C62D003F065B4F666D7D071B
:1007C0007F6F777C395E79710F0000000F000000A9
:1007D0000F0000000F0000000000000000000000FB
:04000005000001698D
:00000001FF
