:020000040000FA
:1000000048030010A1010000A9010000AB0100009D
:10001000AD010000AF010000B101000000000000D0
:10002000000000000000000000000000B30100001C
:10003000B501000000000000B7010000B901000098
:10004000BB010000BB010000BB010000BB010000C0
:10005000BB010000BB010000BB010000BB010000B0
:10006000BB010000BB010000BB010000BB010000A0
:10007000BB010000BB010000BB010000BB01000090
:10008000BB010000BB010000BB010000BB01000080
:10009000BB010000BB010000BB010000BB01000070
:1000A000BB010000BB010000BB010000BB01000060
:1000B000BB010000BB010000BB010000BB01000050
:1000C000BB010000BB010000BB01000000F002F812
:1000D00000F03CF80AA090E8000C82448344AAF1A6
:1000E0000107DA4501D100F031F8AFF2090EBAE8A4
:1000F0000F0013F0010F18BFFB1A43F0010318475C
:100100007006000090060000103A24BF78C878C13D
:10011000FAD8520724BF30C830C144BF04680C600D
:10012000704700000023002400250026103A28BF55
:1001300078C1FBD8520728BF30C148BF0B60704759
:100140001FB500F0E6FA1FBD10B510BD00F0EAFAC9
:100150001146FFF7F5FF00F08EFA00F0B9F803B48E
:10016000FFF7F2FF03BC00F0BDF800000B49D1F827
:1001700000C04A685CF8043B1068184442F8040B5D
:100180008C4528BFA1F1DC0C8A4228BFA1F1DC021A
:10019000C1F800C04A6020F000407047E000001045
:1001A0000948804709480047FEE7FEE7FEE7FEE70B
:1001B000FEE7FEE7FEE7FEE7FEE7FEE70448054947
:1001C000034A054B70470000A9040000CD00000061
:1001D00048010010480300104801001053EA020CC7
:1001E00000F069802DE9F04B4FF00006002B1FBF97
:1001F000B3FA83F503FA05F424FA05F65E4012BF5C
:100200001643B2FA82F502FA05F4C5F120051EBFC5
:1002100022FA05FC44EA0C04203556EA044C4FEA65
:10022000144418BF641C4FF000084FF000099042BE
:1002300071EB030C39D3002919BFB1FA81F701FA28
:1002400007F6B0FA80F700FA07F6C7F120071EBFDD
:1002500020FA07FC46EA0C062037B6FBF4FCA7EBB5
:100260000507103F07F01F0BCBF120060CFA0BFB24
:100270002CFA06F644BFB3460026202FA4BF5E46E4
:100280004FF0000B5BEA060C08BF4FF0010B19EBB7
:100290000B09ABFB027C48EB0608C01B06FB02CC3B
:1002A0000BFB03CC71EB0C01C1E70B460246414648
:1002B0004846BDE8F08B13B54FF000004FF0000149
:1002C000AFF30080BDE81C4070477047704770472F
:1002D0000446AFF300802046FFF741FF0048704717
:1002E000E800001001491820ABBEFEE7260002001E
:1002F000704700000000000000000000FFFFFFFF4B
:100300002DE9F04781480068C0F3016003287CD1E3
:100310007F48006810F0030006D0012833D002287F
:100320005FD003282ED100E000BF78480068C0F3FA
:10033000074000F101044FF002017648D0F8880030
:10034000C0F30E0000F10100A1FB0001724B4FF061
:10035000000CA0FB037901FB039100FB0C1122466A
:1003600063463846FFF73AFF05466C480068C0B25E
:1003700000F1010422464FF000032846FFF72EFF4C
:10038000674908605DE061480068C0F3074000F11C
:1003900001044FF002015F48D0F88800C0F30E005E
:1003A00000F10100A1FB00105E4A4FF0000CA1FB20
:1003B000027900FB029001FB0C012246634638469D
:1003C000FFF70CFF054655480068C0B200F1010474
:1003D00022464FF000032846FFF700FF504908600F
:1003E0002FE04A480068C0F3074000F101044FF0D5
:1003F00002014848D0F88800C0F30E0000F1010067
:10040000A1FB00124FF4004000E01BE04FF000039E
:10041000A1FB007902FB009001FB03012246384654
:10042000FFF7DCFE05463D480068C0B200F101045C
:1004300022464FF000032846FFF7D0FE38490860F7
:1004400000BF2FE03248006810F0030006D00128FA
:1004500010D0022819D0032823D100E000BF2F4874
:100460000068C0B200F101002B49B1FBF0F02C494B
:10047000086016E029480068C0B200F1010029496F
:10048000B1FBF0F0264908600BE024480068C0B2D8
:1004900000F101004FF40041B1FBF0F02049086089
:1004A00000BF00BFBDE8F08720201F490860194841
:1004B000D0F8A00110F0200F05D000BF1A48006846
:1004C00010F0400FFAD00320144908601748114972
:1004D000C1F8A8011648174908604FF001000C49FF
:1004E00008604FF00400A1F10401086012481349AC
:1004F000086040F201100749C1F8C80108460068C9
:1005000020F4704040F480400860704788C00F407D
:100510000CC10F4000C00F4000093D0004C10F4056
:1005200000000010001BB700A0C10F4055515155ED
:1005300055545554ACC10F40DEF7EFEFC4C00F4027
:10054000002100E0491C8142FCD370474FF0F0606D
:100550006249C8614FF00060C8614000C8617047DF
:1005600010B504460B46FFF7F1FF5C48446123B920
:100570004FF000605949C86103E04FF000605749EF
:1005800088614FF08050554988611920FFF7D8FFE6
:100590004FF080505149C86110BD70B504460E46F9
:1005A00004F0F005ED0431462846FFF7D9FF04F0CA
:1005B0000F05ED0531462846FFF7D2FF4FF47A705C
:1005C000FFF7BEFF70BD70B5054600240BE02E5D41
:1005D00001213046FFF7E1FF641C102C03D10021FC
:1005E000C020FFF7DAFF285D0028F0D170BD00B50C
:1005F0003B4840683B4908403949486037480068F3
:1006000040F0FC5035490860FFF7A0FF4FF4486008
:10061000FFF796FF00213320FFF7BFFF47F230506E
:10062000FFF78EFF00213220FFF7B7FF47F230506F
:10063000FFF786FF00212820FFF7AFFF47F2305079
:10064000FFF77EFF00210C20FFF7A7FF4FF4487053
:10065000FFF776FF00210620FFF79FFF4FF4487059
:10066000FFF76EFF00210120FFF797FF42F21070A5
:10067000FFF766FF00BD08B51848006820F48050F9
:1006800016490860FFF7B3FF0021C020FFF785FF80
:100690004FF44870FFF754FF1EE01048406D10F40F
:1006A000805F19D1FFF762FD062190FBF1F201FB9B
:1006B0001200401CC0B200909DF800003030C0B263
:1006C00000900021C020FFF768FF4FF44870FFF74B
:1006D00037FF6846FFF777FFDFE7000000C009201B
:1006E00000C00240FF3F00FC0B4910B5A1F17C02A5
:1006F0000A4CC2E93712372106E000EB104342F8FA
:100700002130074B00FB03400B1EA1F10101F4DC7B
:1007100010BD0120E8E7000080000010E119D66656
:10072000CD0D01007546FFF7D9FDAE4605006946BF
:10073000534620F00700854618B020B5FFF73EFD70
:10074000BDE820404FF000064FF000074FF00008D2
:100750004FF0000B21F00701AC46ACE8C009ACE853
:10076000C009ACE8C009ACE8C0098D46704700007C
:1007700090070000000000100400000008010000C5
:10078000940700000400001044030000240100004E
:04079000C0C62D00B2
:04000005000001A155
:00000001FF
